{
  "contractName": "ERC",
  "abi": [
    {
      "constant": true,
      "inputs": [
        {
          "name": "interfaceID",
          "type": "bytes4"
        }
      ],
      "name": "supportsInterface",
      "outputs": [
        {
          "name": "",
          "type": "bool"
        }
      ],
      "payable": false,
      "stateMutability": "view",
      "type": "function"
    },
    {
      "anonymous": false,
      "inputs": [
        {
          "indexed": true,
          "name": "_from",
          "type": "address"
        },
        {
          "indexed": true,
          "name": "_to",
          "type": "address"
        },
        {
          "indexed": true,
          "name": "_tokenId",
          "type": "uint256"
        }
      ],
      "name": "Transfer",
      "type": "event"
    },
    {
      "constant": true,
      "inputs": [
        {
          "name": "_owner",
          "type": "address"
        }
      ],
      "name": "balanceOf",
      "outputs": [
        {
          "name": "",
          "type": "uint256"
        }
      ],
      "payable": false,
      "stateMutability": "view",
      "type": "function"
    },
    {
      "constant": true,
      "inputs": [
        {
          "name": "_tokenId",
          "type": "uint256"
        }
      ],
      "name": "ownerOf",
      "outputs": [
        {
          "name": "",
          "type": "address"
        }
      ],
      "payable": false,
      "stateMutability": "view",
      "type": "function"
    }
  ],
  "bytecode": "0x608060405261005160405180807f737570706f727473496e7465726661636528627974657334290000000000000081525060190190506040518091039020610056640100000000026401000000009004565b61017c565b63ffffffff7c010000000000000000000000000000000000000000000000000000000002817bffffffffffffffffffffffffffffffffffffffffffffffffffffffff191614151515610110576040517f08c379a00000000000000000000000000000000000000000000000000000000081526004018080602001828103825260198152602001807f496e76616c696420696e7465726661636520726571756573740000000000000081525060200191505060405180910390fd5b6001600080837bffffffffffffffffffffffffffffffffffffffffffffffffffffffff19167bffffffffffffffffffffffffffffffffffffffffffffffffffffffff1916815260200190815260200160002060006101000a81548160ff02191690831515021790555050565b6104158061018b6000396000f3fe608060405260043610610057576000357c0100000000000000000000000000000000000000000000000000000000900463ffffffff16806301ffc9a71461005c5780636352211e146100ce57806370a0823114610149575b600080fd5b34801561006857600080fd5b506100b46004803603602081101561007f57600080fd5b8101908080357bffffffffffffffffffffffffffffffffffffffffffffffffffffffff191690602001909291905050506101ae565b604051808215151515815260200191505060405180910390f35b3480156100da57600080fd5b50610107600480360360208110156100f157600080fd5b8101908080359060200190929190505050610215565b604051808273ffffffffffffffffffffffffffffffffffffffff1673ffffffffffffffffffffffffffffffffffffffff16815260200191505060405180910390f35b34801561015557600080fd5b506101986004803603602081101561016c57600080fd5b81019080803573ffffffffffffffffffffffffffffffffffffffff1690602001909291905050506102fc565b6040518082815260200191505060405180910390f35b6000806000837bffffffffffffffffffffffffffffffffffffffffffffffffffffffff19167bffffffffffffffffffffffffffffffffffffffffffffffffffffffff1916815260200190815260200160002060009054906101000a900460ff169050919050565b6000806001600084815260200190815260200160002060009054906101000a900473ffffffffffffffffffffffffffffffffffffffff169050600073ffffffffffffffffffffffffffffffffffffffff168173ffffffffffffffffffffffffffffffffffffffff16141515156102f3576040517f08c379a000000000000000000000000000000000000000000000000000000000815260040180806020018281038252601b8152602001807f6f776e657220717565727920666f72206e6f6e6578697374656e74000000000081525060200191505060405180910390fd5b80915050919050565b60008073ffffffffffffffffffffffffffffffffffffffff168273ffffffffffffffffffffffffffffffffffffffff16141515156103a2576040517f08c379a000000000000000000000000000000000000000000000000000000000815260040180806020018281038252601b8152602001807f6f776e657220717565727920666f72206e6f6e6578697374656e74000000000081525060200191505060405180910390fd5b600260008373ffffffffffffffffffffffffffffffffffffffff1673ffffffffffffffffffffffffffffffffffffffff16815260200190815260200160002054905091905056fea165627a7a72305820dc820c2581c3ee1fdd744788e15105525770736e15d7915dbf85db939baf71fe0029",
  "source": "pragma solidity >=0.4.22 <0.9.0;\r\n\r\nimport './ERC165.sol';\r\nimport './interfaces/IERC721.sol';\r\ncontract ERC is ERC165, IERC721{    \r\n    //mapping from token id to owner\r\n    mapping(uint256 => address) private _tokenOwner;\r\n    \r\n    //mapping from owner to number of owned tokens\r\n    mapping(address => uint256) private _OwnedTokensCount;\r\n    \r\n    function balanceOf(address _owner) public view returns(uint256){\r\n           require(_owner!=address(0),'owner query for nonexistent');\r\n           return _OwnedTokensCount[_owner];\r\n    }\r\n\r\n    function ownerOf(uint256 _tokenId) external view returns (address){\r\n        address owner = _tokenOwner[_tokenId];\r\n         require(owner!=address(0),'owner query for nonexistent');\r\n        return owner;\r\n    } \r\n\r\n\r\n    function _exists(uint256 tokenId) internal view returns(bool){\r\n        //setting the address of nft owner to check the mapping\r\n        //of the address from tokenOwner at the tokenId\r\n        address owner = _tokenOwner[tokenId];\r\n        //return truthiness that address is not zero\r\n        return owner != address(0);  \r\n    }\r\n    function _mint(address to, uint256 tokenId) internal{\r\n        //requires that address isn't zero\r\n        require(to != address(0), 'ERC: minting to the zero address');\r\n        \r\n        //requires that token doesn't already exists\r\n        require(!_exists(tokenId),'ERC: token already minted');\r\n        \r\n        //we are adding a new address with a token id for minting\r\n        _tokenOwner[tokenId] = to;\r\n\r\n        //Owned tokens count by the owner\r\n        _OwnedTokensCount[to]+=1;\r\n\r\n        emit Transfer(address(0), to, tokenId);\r\n    } \r\n} ",
  "sourcePath": "C:\\Users\\Vanaja\\deeploop\\major proj\\implementation\\augmented_learning\\contracts\\ERC.sol",
  "compiler": {
    "name": "solc",
    "version": "0.5.0+commit.1d4f565a.Emscripten.clang"
  },
  "schemaVersion": "3.0.1",
  "updatedAt": "2021-12-29T05:51:54.623Z",
  "devdoc": {
    "methods": {}
  },
  "userdoc": {
    "methods": {}
  }
}