{
  "contractName": "ERC165",
  "abi": [
    {
      "inputs": [],
      "payable": false,
      "stateMutability": "nonpayable",
      "type": "constructor"
    },
    {
      "constant": true,
      "inputs": [
        {
          "name": "interfaceID",
          "type": "bytes4"
        }
      ],
      "name": "supportsInterface",
      "outputs": [
        {
          "name": "",
          "type": "bool"
        }
      ],
      "payable": false,
      "stateMutability": "view",
      "type": "function"
    }
  ],
  "bytecode": "0x608060405234801561001057600080fd5b5061005e60405180807f737570706f727473496e7465726661636528627974657334290000000000000081525060190190506040518091039020610063640100000000026401000000009004565b610189565b63ffffffff7c010000000000000000000000000000000000000000000000000000000002817bffffffffffffffffffffffffffffffffffffffffffffffffffffffff19161415151561011d576040517f08c379a00000000000000000000000000000000000000000000000000000000081526004018080602001828103825260198152602001807f496e76616c696420696e7465726661636520726571756573740000000000000081525060200191505060405180910390fd5b6001600080837bffffffffffffffffffffffffffffffffffffffffffffffffffffffff19167bffffffffffffffffffffffffffffffffffffffffffffffffffffffff1916815260200190815260200160002060006101000a81548160ff02191690831515021790555050565b61014b806101986000396000f3fe608060405260043610610041576000357c0100000000000000000000000000000000000000000000000000000000900463ffffffff16806301ffc9a714610046575b600080fd5b34801561005257600080fd5b5061009e6004803603602081101561006957600080fd5b8101908080357bffffffffffffffffffffffffffffffffffffffffffffffffffffffff191690602001909291905050506100b8565b604051808215151515815260200191505060405180910390f35b6000806000837bffffffffffffffffffffffffffffffffffffffffffffffffffffffff19167bffffffffffffffffffffffffffffffffffffffffffffffffffffffff1916815260200190815260200160002060009054906101000a900460ff16905091905056fea165627a7a723058206cf554e3d2ca0c184d9e10669af3984adf5223807a2ede2ba576a3a5fd2ddd200029",
  "source": "// SPDX-License-Identifier: MIT\r\npragma solidity >=0.4.22 <0.9.0;\r\n\r\nimport './interfaces/IERC165.sol';\r\ncontract ERC165 is IERC165{\r\n    mapping(bytes4 => bool) private _supportedInterfaces;\r\n\r\n    constructor() public{\r\n        _registerInterface(bytes4(keccak256('supportsInterface(bytes4)')));\r\n    }\r\n  function supportsInterface(bytes4 interfaceID) external view returns (bool){\r\n      return _supportedInterfaces[interfaceID];\r\n  }\r\n\r\n  function _registerInterface(bytes4 interfaceId) internal{\r\n      require(interfaceId != 0xffffffff, 'Invalid interface request');\r\n      _supportedInterfaces[interfaceId] = true;\r\n  }\r\n}",
  "sourcePath": "C:\\Users\\Vanaja\\deeploop\\major proj\\implementation\\augmented_learning\\contracts\\ERC165.sol",
  "compiler": {
    "name": "solc",
    "version": "0.5.0+commit.1d4f565a.Emscripten.clang"
  },
  "schemaVersion": "3.0.1",
  "updatedAt": "2021-12-29T05:51:54.592Z",
  "devdoc": {
    "methods": {}
  },
  "userdoc": {
    "methods": {}
  }
}