{
  "contractName": "ERCEnumerable",
  "abi": [
    {
      "constant": true,
      "inputs": [
        {
          "name": "interfaceID",
          "type": "bytes4"
        }
      ],
      "name": "supportsInterface",
      "outputs": [
        {
          "name": "",
          "type": "bool"
        }
      ],
      "payable": false,
      "stateMutability": "view",
      "type": "function"
    },
    {
      "constant": true,
      "inputs": [
        {
          "name": "_tokenId",
          "type": "uint256"
        }
      ],
      "name": "ownerOf",
      "outputs": [
        {
          "name": "",
          "type": "address"
        }
      ],
      "payable": false,
      "stateMutability": "view",
      "type": "function"
    },
    {
      "constant": true,
      "inputs": [
        {
          "name": "_owner",
          "type": "address"
        }
      ],
      "name": "balanceOf",
      "outputs": [
        {
          "name": "",
          "type": "uint256"
        }
      ],
      "payable": false,
      "stateMutability": "view",
      "type": "function"
    },
    {
      "anonymous": false,
      "inputs": [
        {
          "indexed": true,
          "name": "_from",
          "type": "address"
        },
        {
          "indexed": true,
          "name": "_to",
          "type": "address"
        },
        {
          "indexed": true,
          "name": "_tokenId",
          "type": "uint256"
        }
      ],
      "name": "Transfer",
      "type": "event"
    },
    {
      "constant": true,
      "inputs": [
        {
          "name": "index",
          "type": "uint256"
        }
      ],
      "name": "tokenByIndex",
      "outputs": [
        {
          "name": "",
          "type": "uint256"
        }
      ],
      "payable": false,
      "stateMutability": "view",
      "type": "function"
    },
    {
      "constant": true,
      "inputs": [
        {
          "name": "owner",
          "type": "address"
        },
        {
          "name": "index",
          "type": "uint256"
        }
      ],
      "name": "tokenOfOwnerByIndex",
      "outputs": [
        {
          "name": "",
          "type": "uint256"
        }
      ],
      "payable": false,
      "stateMutability": "view",
      "type": "function"
    },
    {
      "constant": true,
      "inputs": [],
      "name": "totalSupply",
      "outputs": [
        {
          "name": "",
          "type": "uint256"
        }
      ],
      "payable": false,
      "stateMutability": "view",
      "type": "function"
    }
  ],
  "bytecode": "0x608060405261005160405180807f737570706f727473496e7465726661636528627974657334290000000000000081525060190190506040518091039020610056640100000000026401000000009004565b61017c565b63ffffffff7c010000000000000000000000000000000000000000000000000000000002817bffffffffffffffffffffffffffffffffffffffffffffffffffffffff191614151515610110576040517f08c379a00000000000000000000000000000000000000000000000000000000081526004018080602001828103825260198152602001807f496e76616c696420696e7465726661636520726571756573740000000000000081525060200191505060405180910390fd5b6001600080837bffffffffffffffffffffffffffffffffffffffffffffffffffffffff19167bffffffffffffffffffffffffffffffffffffffffffffffffffffffff1916815260200190815260200160002060006101000a81548160ff02191690831515021790555050565b6106ad8061018b6000396000f3fe608060405260043610610078576000357c0100000000000000000000000000000000000000000000000000000000900463ffffffff16806301ffc9a71461007d57806318160ddd146100ef5780632f745c591461011a5780634f6ccce7146101895780636352211e146101d857806370a0823114610253575b600080fd5b34801561008957600080fd5b506100d5600480360360208110156100a057600080fd5b8101908080357bffffffffffffffffffffffffffffffffffffffffffffffffffffffff191690602001909291905050506102b8565b604051808215151515815260200191505060405180910390f35b3480156100fb57600080fd5b5061010461031f565b6040518082815260200191505060405180910390f35b34801561012657600080fd5b506101736004803603604081101561013d57600080fd5b81019080803573ffffffffffffffffffffffffffffffffffffffff1690602001909291908035906020019092919050505061032c565b6040518082815260200191505060405180910390f35b34801561019557600080fd5b506101c2600480360360208110156101ac57600080fd5b810190808035906020019092919050505061040c565b6040518082815260200191505060405180910390f35b3480156101e457600080fd5b50610211600480360360208110156101fb57600080fd5b81019080803590602001909291905050506104ad565b604051808273ffffffffffffffffffffffffffffffffffffffff1673ffffffffffffffffffffffffffffffffffffffff16815260200191505060405180910390f35b34801561025f57600080fd5b506102a26004803603602081101561027657600080fd5b81019080803573ffffffffffffffffffffffffffffffffffffffff169060200190929190505050610594565b6040518082815260200191505060405180910390f35b6000806000837bffffffffffffffffffffffffffffffffffffffffffffffffffffffff19167bffffffffffffffffffffffffffffffffffffffffffffffffffffffff1916815260200190815260200160002060009054906101000a900460ff169050919050565b6000600380549050905090565b600061033783610594565b821015156103ad576040517f08c379a000000000000000000000000000000000000000000000000000000000815260040180806020018281038252601d8152602001807f676c6f62616c20696e646578206973206f7574206f6620626f756e647300000081525060200191505060405180910390fd5b600560008473ffffffffffffffffffffffffffffffffffffffff1673ffffffffffffffffffffffffffffffffffffffff168152602001908152602001600020828154811015156103f957fe5b9060005260206000200154905092915050565b600061041661031f565b8210151561048c576040517f08c379a000000000000000000000000000000000000000000000000000000000815260040180806020018281038252601d8152602001807f676c6f62616c20696e646578206973206f7574206f6620626f756e647300000081525060200191505060405180910390fd5b60038281548110151561049b57fe5b90600052602060002001549050919050565b6000806001600084815260200190815260200160002060009054906101000a900473ffffffffffffffffffffffffffffffffffffffff169050600073ffffffffffffffffffffffffffffffffffffffff168173ffffffffffffffffffffffffffffffffffffffff161415151561058b576040517f08c379a000000000000000000000000000000000000000000000000000000000815260040180806020018281038252601b8152602001807f6f776e657220717565727920666f72206e6f6e6578697374656e74000000000081525060200191505060405180910390fd5b80915050919050565b60008073ffffffffffffffffffffffffffffffffffffffff168273ffffffffffffffffffffffffffffffffffffffff161415151561063a576040517f08c379a000000000000000000000000000000000000000000000000000000000815260040180806020018281038252601b8152602001807f6f776e657220717565727920666f72206e6f6e6578697374656e74000000000081525060200191505060405180910390fd5b600260008373ffffffffffffffffffffffffffffffffffffffff1673ffffffffffffffffffffffffffffffffffffffff16815260200190815260200160002054905091905056fea165627a7a72305820904b54d2331e58962b6a557e59cfea2dc990f6bf949c7d309b15741f58bc3a560029",
  "source": "// SPDX-License-Identifier: MIT\r\npragma solidity >=0.4.22 <0.9.0;\r\nimport './ERC.sol';\r\ncontract ERCEnumerable is ERC{\r\n\r\n    uint256[] private _allTokens;\r\n   //mapping from tokenId to position in _allTokens array\r\n\r\n   mapping(uint256 => uint256) private _allTokensIndex;\r\n\r\n   //mapping of owner to list of all owner token ids\r\n\r\n   mapping(address => uint256[]) private _ownedTokens;\r\n\r\n   //mapping from token ID to index of the owner token ids\r\n\r\n   mapping(uint256 => uint256) private _ownedTokensIndex;\r\n\r\n  function _mint(address to, uint256 tokenId) internal {\r\n       super._mint(to, tokenId);\r\n       //add tokens to the owner\r\n       //add tokens to our totalsupply- to allTokens\r\n       _addTokensToAllTokenEnumeration(tokenId);\r\n       _addTokensToOwnerEnumeration(to, tokenId);\r\n  }\r\n\r\n//add tokens to the _alltokens array and set the position of the token indexes\r\n   function _addTokensToAllTokenEnumeration(uint256 tokenId) private{\r\n       _allTokensIndex[tokenId] = _allTokens.length;\r\n       _allTokens.push(tokenId);\r\n\r\n   }\r\n\r\n   function _addTokensToOwnerEnumeration(address to, uint256 tokenId) private{\r\n       //add address and token if to the owned tokens\r\n       //ownedTokensIndex tokenId set to address of ownedTokens position\r\n        //execute the function with minting\r\n       _ownedTokensIndex[tokenId] = _ownedTokens[to].length;\r\n       _ownedTokens[to].push(tokenId); \r\n   }\r\n\r\n     function tokenByIndex(uint256 index) external view returns (uint256){\r\n         //make sure the index is not out of bounds of the total supply\r\n         require(index < totalSupply(), 'global index is out of bounds');\r\n         return _allTokens[index];\r\n     }   \r\n\r\n    function tokenOfOwnerByIndex(address owner, uint256 index) external view returns (uint256){\r\n         require(index < balanceOf(owner),'global index is out of bounds');\r\n         return _ownedTokens[owner][index];\r\n    }\r\n\r\n     \r\n\r\n   //return the total supply of the _allTokens array\r\n   function totalSupply() public view returns(uint256){\r\n       return _allTokens.length;\r\n   }\r\n}",
  "sourcePath": "C:\\Users\\Vanaja\\deeploop\\major proj\\implementation\\augmented_learning\\contracts\\ERCEnumerable.sol",
  "compiler": {
    "name": "solc",
    "version": "0.5.0+commit.1d4f565a.Emscripten.clang"
  },
  "schemaVersion": "3.0.1",
  "updatedAt": "2021-12-29T05:51:54.631Z",
  "devdoc": {
    "methods": {}
  },
  "userdoc": {
    "methods": {}
  }
}