{
  "contractName": "ThreeDModel",
  "abi": [
    {
      "constant": true,
      "inputs": [
        {
          "name": "",
          "type": "int256"
        }
      ],
      "name": "models",
      "outputs": [
        {
          "name": "id",
          "type": "int256"
        },
        {
          "name": "name",
          "type": "string"
        },
        {
          "name": "creator",
          "type": "string"
        }
      ],
      "payable": false,
      "stateMutability": "view",
      "type": "function"
    },
    {
      "constant": true,
      "inputs": [],
      "name": "modelCount",
      "outputs": [
        {
          "name": "",
          "type": "int256"
        }
      ],
      "payable": false,
      "stateMutability": "view",
      "type": "function"
    },
    {
      "inputs": [],
      "payable": false,
      "stateMutability": "nonpayable",
      "type": "constructor"
    },
    {
      "anonymous": false,
      "inputs": [
        {
          "indexed": false,
          "name": "id",
          "type": "int256"
        },
        {
          "indexed": false,
          "name": "name",
          "type": "string"
        },
        {
          "indexed": false,
          "name": "creator",
          "type": "string"
        }
      ],
      "name": "ModelAdded",
      "type": "event"
    },
    {
      "constant": false,
      "inputs": [
        {
          "name": "_name",
          "type": "string"
        },
        {
          "name": "_creator",
          "type": "string"
        }
      ],
      "name": "addModel",
      "outputs": [],
      "payable": false,
      "stateMutability": "nonpayable",
      "type": "function"
    }
  ],
  "bytecode": "0x60806040526000805534801561001457600080fd5b506106df806100246000396000f3fe608060405260043610610057576000357c0100000000000000000000000000000000000000000000000000000000900463ffffffff1680636cb6e84a1461005c578063c6a645fe14610183578063fc6362ba146101ae575b600080fd5b34801561006857600080fd5b506100956004803603602081101561007f57600080fd5b810190808035906020019092919050505061030d565b604051808481526020018060200180602001838103835285818151815260200191508051906020019080838360005b838110156100df5780820151818401526020810190506100c4565b50505050905090810190601f16801561010c5780820380516001836020036101000a031916815260200191505b50838103825284818151815260200191508051906020019080838360005b8381101561014557808201518184015260208101905061012a565b50505050905090810190601f1680156101725780820380516001836020036101000a031916815260200191505b509550505050505060405180910390f35b34801561018f57600080fd5b50610198610467565b6040518082815260200191505060405180910390f35b3480156101ba57600080fd5b5061030b600480360360408110156101d157600080fd5b81019080803590602001906401000000008111156101ee57600080fd5b82018360208201111561020057600080fd5b8035906020019184600183028401116401000000008311171561022257600080fd5b91908080601f016020809104026020016040519081016040528093929190818152602001838380828437600081840152601f19601f8201169050808301925050505050505091929192908035906020019064010000000081111561028557600080fd5b82018360208201111561029757600080fd5b803590602001918460018302840111640100000000831117156102b957600080fd5b91908080601f016020809104026020016040519081016040528093929190818152602001838380828437600081840152601f19601f82011690508083019250505050505050919291929050505061046d565b005b6001602052806000526040600020600091509050806000015490806001018054600181600116156101000203166002900480601f0160208091040260200160405190810160405280929190818152602001828054600181600116156101000203166002900480156103bf5780601f10610394576101008083540402835291602001916103bf565b820191906000526020600020905b8154815290600101906020018083116103a257829003601f168201915b505050505090806002018054600181600116156101000203166002900480601f01602080910402602001604051908101604052809291908181526020018280546001816001161561010002031660029004801561045d5780601f106104325761010080835404028352916020019161045d565b820191906000526020600020905b81548152906001019060200180831161044057829003601f168201915b5050505050905083565b60005481565b600080815480929190600101919050555060606040519081016040528060005481526020018381526020018281525060016000805481526020019081526020016000206000820151816000015560208201518160010190805190602001906104d692919061060e565b5060408201518160020190805190602001906104f392919061060e565b509050507f1103f79b44afd948ba92be8dababf91233e867c3b8588168506675482a3693196000548383604051808481526020018060200180602001838103835285818151815260200191508051906020019080838360005b8381101561056757808201518184015260208101905061054c565b50505050905090810190601f1680156105945780820380516001836020036101000a031916815260200191505b50838103825284818151815260200191508051906020019080838360005b838110156105cd5780820151818401526020810190506105b2565b50505050905090810190601f1680156105fa5780820380516001836020036101000a031916815260200191505b509550505050505060405180910390a15050565b828054600181600116156101000203166002900490600052602060002090601f016020900481019282601f1061064f57805160ff191683800117855561067d565b8280016001018555821561067d579182015b8281111561067c578251825591602001919060010190610661565b5b50905061068a919061068e565b5090565b6106b091905b808211156106ac576000816000905550600101610694565b5090565b9056fea165627a7a723058203afe2400f350e672a1fbbd863f34faf75072941854fdd44050a63ac0ac2449f70029",
  "source": "pragma solidity >=0.4.22 <0.9.0;\r\n\r\ncontract ThreeDModel{\r\n    int public modelCount = 0;\r\n\r\n    struct Model{\r\n        int id;\r\n        string name;\r\n        string creator;\r\n    }\r\n\r\n    mapping(int => Model) public models;\r\n\r\n    event ModelAdded(\r\n        int id,\r\n        string name,\r\n        string creator\r\n    );\r\n\r\n    constructor() public {\r\n        //addModel(\"ice\", \"k\");\r\n    }\r\n\r\n    /*function name1() external view returns(string memory){\r\n        return name;\r\n    }*/\r\n\r\n    function addModel(string memory _name, string memory _creator) public {\r\n        modelCount++;\r\n        models[modelCount] = Model(modelCount, _name, _creator);\r\n        emit ModelAdded(modelCount,_name,_creator);\r\n    }\r\n}",
  "sourcePath": "C:/Users/Vanaja/deeploop/major proj/implementation/augmented_learning/contracts/ThreeDModel.sol",
  "compiler": {
    "name": "solc",
    "version": "0.5.0+commit.1d4f565a.Emscripten.clang"
  },
  "schemaVersion": "3.0.1",
  "updatedAt": "2021-12-29T05:52:29.878Z",
  "devdoc": {
    "methods": {}
  },
  "userdoc": {
    "methods": {}
  }
}